{
  "contractName": "TokenTest",
  "abi": [
    {
      "inputs": [],
      "stateMutability": "nonpayable",
      "type": "constructor"
    },
    {
      "anonymous": false,
      "inputs": [
        {
          "indexed": false,
          "internalType": "address",
          "name": "previousAdmin",
          "type": "address"
        },
        {
          "indexed": false,
          "internalType": "address",
          "name": "newAdmin",
          "type": "address"
        }
      ],
      "name": "AdminChanged",
      "type": "event"
    },
    {
      "anonymous": false,
      "inputs": [
        {
          "indexed": true,
          "internalType": "address",
          "name": "owner",
          "type": "address"
        },
        {
          "indexed": true,
          "internalType": "address",
          "name": "spender",
          "type": "address"
        },
        {
          "indexed": false,
          "internalType": "uint256",
          "name": "value",
          "type": "uint256"
        }
      ],
      "name": "Approval",
      "type": "event"
    },
    {
      "anonymous": false,
      "inputs": [
        {
          "indexed": true,
          "internalType": "address",
          "name": "beacon",
          "type": "address"
        }
      ],
      "name": "BeaconUpgraded",
      "type": "event"
    },
    {
      "anonymous": false,
      "inputs": [
        {
          "indexed": false,
          "internalType": "uint8",
          "name": "version",
          "type": "uint8"
        }
      ],
      "name": "Initialized",
      "type": "event"
    },
    {
      "anonymous": false,
      "inputs": [
        {
          "indexed": true,
          "internalType": "address",
          "name": "previousOwner",
          "type": "address"
        },
        {
          "indexed": true,
          "internalType": "address",
          "name": "newOwner",
          "type": "address"
        }
      ],
      "name": "OwnershipTransferred",
      "type": "event"
    },
    {
      "anonymous": false,
      "inputs": [
        {
          "indexed": false,
          "internalType": "address",
          "name": "account",
          "type": "address"
        }
      ],
      "name": "Paused",
      "type": "event"
    },
    {
      "anonymous": false,
      "inputs": [
        {
          "indexed": true,
          "internalType": "address",
          "name": "from",
          "type": "address"
        },
        {
          "indexed": true,
          "internalType": "address",
          "name": "to",
          "type": "address"
        },
        {
          "indexed": false,
          "internalType": "uint256",
          "name": "value",
          "type": "uint256"
        }
      ],
      "name": "Transfer",
      "type": "event"
    },
    {
      "anonymous": false,
      "inputs": [
        {
          "indexed": false,
          "internalType": "address",
          "name": "account",
          "type": "address"
        }
      ],
      "name": "Unpaused",
      "type": "event"
    },
    {
      "anonymous": false,
      "inputs": [
        {
          "indexed": true,
          "internalType": "address",
          "name": "implementation",
          "type": "address"
        }
      ],
      "name": "Upgraded",
      "type": "event"
    },
    {
      "inputs": [
        {
          "internalType": "address",
          "name": "owner",
          "type": "address"
        },
        {
          "internalType": "address",
          "name": "spender",
          "type": "address"
        }
      ],
      "name": "allowance",
      "outputs": [
        {
          "internalType": "uint256",
          "name": "",
          "type": "uint256"
        }
      ],
      "stateMutability": "view",
      "type": "function"
    },
    {
      "inputs": [
        {
          "internalType": "address",
          "name": "spender",
          "type": "address"
        },
        {
          "internalType": "uint256",
          "name": "amount",
          "type": "uint256"
        }
      ],
      "name": "approve",
      "outputs": [
        {
          "internalType": "bool",
          "name": "",
          "type": "bool"
        }
      ],
      "stateMutability": "nonpayable",
      "type": "function"
    },
    {
      "inputs": [
        {
          "internalType": "address",
          "name": "account",
          "type": "address"
        }
      ],
      "name": "balanceOf",
      "outputs": [
        {
          "internalType": "uint256",
          "name": "",
          "type": "uint256"
        }
      ],
      "stateMutability": "view",
      "type": "function"
    },
    {
      "inputs": [
        {
          "internalType": "uint256",
          "name": "amount",
          "type": "uint256"
        }
      ],
      "name": "burn",
      "outputs": [],
      "stateMutability": "nonpayable",
      "type": "function"
    },
    {
      "inputs": [
        {
          "internalType": "address",
          "name": "account",
          "type": "address"
        },
        {
          "internalType": "uint256",
          "name": "amount",
          "type": "uint256"
        }
      ],
      "name": "burnFrom",
      "outputs": [],
      "stateMutability": "nonpayable",
      "type": "function"
    },
    {
      "inputs": [],
      "name": "decimals",
      "outputs": [
        {
          "internalType": "uint8",
          "name": "",
          "type": "uint8"
        }
      ],
      "stateMutability": "view",
      "type": "function"
    },
    {
      "inputs": [
        {
          "internalType": "address",
          "name": "spender",
          "type": "address"
        },
        {
          "internalType": "uint256",
          "name": "subtractedValue",
          "type": "uint256"
        }
      ],
      "name": "decreaseAllowance",
      "outputs": [
        {
          "internalType": "bool",
          "name": "",
          "type": "bool"
        }
      ],
      "stateMutability": "nonpayable",
      "type": "function"
    },
    {
      "inputs": [
        {
          "internalType": "address",
          "name": "spender",
          "type": "address"
        },
        {
          "internalType": "uint256",
          "name": "addedValue",
          "type": "uint256"
        }
      ],
      "name": "increaseAllowance",
      "outputs": [
        {
          "internalType": "bool",
          "name": "",
          "type": "bool"
        }
      ],
      "stateMutability": "nonpayable",
      "type": "function"
    },
    {
      "inputs": [],
      "name": "name",
      "outputs": [
        {
          "internalType": "string",
          "name": "",
          "type": "string"
        }
      ],
      "stateMutability": "view",
      "type": "function"
    },
    {
      "inputs": [],
      "name": "owner",
      "outputs": [
        {
          "internalType": "address",
          "name": "",
          "type": "address"
        }
      ],
      "stateMutability": "view",
      "type": "function"
    },
    {
      "inputs": [],
      "name": "paused",
      "outputs": [
        {
          "internalType": "bool",
          "name": "",
          "type": "bool"
        }
      ],
      "stateMutability": "view",
      "type": "function"
    },
    {
      "inputs": [],
      "name": "proxiableUUID",
      "outputs": [
        {
          "internalType": "bytes32",
          "name": "",
          "type": "bytes32"
        }
      ],
      "stateMutability": "view",
      "type": "function"
    },
    {
      "inputs": [],
      "name": "renounceOwnership",
      "outputs": [],
      "stateMutability": "nonpayable",
      "type": "function"
    },
    {
      "inputs": [],
      "name": "symbol",
      "outputs": [
        {
          "internalType": "string",
          "name": "",
          "type": "string"
        }
      ],
      "stateMutability": "view",
      "type": "function"
    },
    {
      "inputs": [],
      "name": "totalSupply",
      "outputs": [
        {
          "internalType": "uint256",
          "name": "",
          "type": "uint256"
        }
      ],
      "stateMutability": "view",
      "type": "function"
    },
    {
      "inputs": [
        {
          "internalType": "address",
          "name": "to",
          "type": "address"
        },
        {
          "internalType": "uint256",
          "name": "amount",
          "type": "uint256"
        }
      ],
      "name": "transfer",
      "outputs": [
        {
          "internalType": "bool",
          "name": "",
          "type": "bool"
        }
      ],
      "stateMutability": "nonpayable",
      "type": "function"
    },
    {
      "inputs": [
        {
          "internalType": "address",
          "name": "from",
          "type": "address"
        },
        {
          "internalType": "address",
          "name": "to",
          "type": "address"
        },
        {
          "internalType": "uint256",
          "name": "amount",
          "type": "uint256"
        }
      ],
      "name": "transferFrom",
      "outputs": [
        {
          "internalType": "bool",
          "name": "",
          "type": "bool"
        }
      ],
      "stateMutability": "nonpayable",
      "type": "function"
    },
    {
      "inputs": [
        {
          "internalType": "address",
          "name": "newOwner",
          "type": "address"
        }
      ],
      "name": "transferOwnership",
      "outputs": [],
      "stateMutability": "nonpayable",
      "type": "function"
    },
    {
      "inputs": [
        {
          "internalType": "address",
          "name": "newImplementation",
          "type": "address"
        }
      ],
      "name": "upgradeTo",
      "outputs": [],
      "stateMutability": "nonpayable",
      "type": "function"
    },
    {
      "inputs": [
        {
          "internalType": "address",
          "name": "newImplementation",
          "type": "address"
        },
        {
          "internalType": "bytes",
          "name": "data",
          "type": "bytes"
        }
      ],
      "name": "upgradeToAndCall",
      "outputs": [],
      "stateMutability": "payable",
      "type": "function"
    },
    {
      "inputs": [],
      "name": "initialize",
      "outputs": [],
      "stateMutability": "nonpayable",
      "type": "function"
    },
    {
      "inputs": [],
      "name": "pause",
      "outputs": [],
      "stateMutability": "nonpayable",
      "type": "function"
    },
    {
      "inputs": [],
      "name": "unpause",
      "outputs": [],
      "stateMutability": "nonpayable",
      "type": "function"
    },
    {
      "inputs": [
        {
          "internalType": "address",
          "name": "to",
          "type": "address"
        },
        {
          "internalType": "uint256",
          "name": "amount",
          "type": "uint256"
        }
      ],
      "name": "mint",
      "outputs": [],
      "stateMutability": "nonpayable",
      "type": "function"
    }
  ],
  "bytecode": "0x60a06040523073ffffffffffffffffffffffffffffffffffffffff1660809073ffffffffffffffffffffffffffffffffffffffff168152503480156200004457600080fd5b50620000556200005b60201b60201c565b62000206565b600060019054906101000a900460ff1615620000ae576040517f08c379a0000000000000000000000000000000000000000000000000000000008152600401620000a590620001a9565b60405180910390fd5b60ff801660008054906101000a900460ff1660ff161015620001205760ff6000806101000a81548160ff021916908360ff1602179055507f7f26b83ff96e1f2b6a682f133852f6798a09c465da95921460cefb384740249860ff604051620001179190620001e9565b60405180910390a15b565b600082825260208201905092915050565b7f496e697469616c697a61626c653a20636f6e747261637420697320696e69746960008201527f616c697a696e6700000000000000000000000000000000000000000000000000602082015250565b60006200019160278362000122565b91506200019e8262000133565b604082019050919050565b60006020820190508181036000830152620001c48162000182565b9050919050565b600060ff82169050919050565b620001e381620001cb565b82525050565b6000602082019050620002006000830184620001d8565b92915050565b6080516135eb6200023e60003960008181610666015281816106f501528181610862015281816108f101526109a101526135eb6000f3fe60806040526004361061014b5760003560e01c80635c975abb116100b65780638da5cb5b1161006f5780638da5cb5b1461043757806395d89b4114610462578063a457c2d71461048d578063a9059cbb146104ca578063dd62ed3e14610507578063f2fde38b146105445761014b565b80635c975abb1461036157806370a082311461038c578063715018a6146103c957806379cc6790146103e05780638129fc1c146104095780638456cb59146104205761014b565b8063395093511161010857806339509351146102745780633f4ba83a146102b157806340c10f19146102c857806342966c68146102f15780634f1ef2861461031a57806352d1902d146103365761014b565b806306fdde0314610150578063095ea7b31461017b57806318160ddd146101b857806323b872dd146101e3578063313ce567146102205780633659cfe61461024b575b600080fd5b34801561015c57600080fd5b5061016561056d565b60405161017291906122b4565b60405180910390f35b34801561018757600080fd5b506101a2600480360381019061019d919061237e565b6105ff565b6040516101af91906123d9565b60405180910390f35b3480156101c457600080fd5b506101cd610622565b6040516101da9190612403565b60405180910390f35b3480156101ef57600080fd5b5061020a6004803603810190610205919061241e565b61062c565b60405161021791906123d9565b60405180910390f35b34801561022c57600080fd5b5061023561065b565b604051610242919061248d565b60405180910390f35b34801561025757600080fd5b50610272600480360381019061026d91906124a8565b610664565b005b34801561028057600080fd5b5061029b6004803603810190610296919061237e565b6107ed565b6040516102a891906123d9565b60405180910390f35b3480156102bd57600080fd5b506102c6610824565b005b3480156102d457600080fd5b506102ef60048036038101906102ea919061237e565b610836565b005b3480156102fd57600080fd5b50610318600480360381019061031391906124d5565b61084c565b005b610334600480360381019061032f9190612637565b610860565b005b34801561034257600080fd5b5061034b61099d565b60405161035891906126ac565b60405180910390f35b34801561036d57600080fd5b50610376610a56565b60405161038391906123d9565b60405180910390f35b34801561039857600080fd5b506103b360048036038101906103ae91906124a8565b610a6d565b6040516103c09190612403565b60405180910390f35b3480156103d557600080fd5b506103de610ab6565b005b3480156103ec57600080fd5b506104076004803603810190610402919061237e565b610aca565b005b34801561041557600080fd5b5061041e610aea565b005b34801561042c57600080fd5b50610435610cb4565b005b34801561044357600080fd5b5061044c610cc6565b60405161045991906126d6565b60405180910390f35b34801561046e57600080fd5b50610477610cf0565b60405161048491906122b4565b60405180910390f35b34801561049957600080fd5b506104b460048036038101906104af919061237e565b610d82565b6040516104c191906123d9565b60405180910390f35b3480156104d657600080fd5b506104f160048036038101906104ec919061237e565b610df9565b6040516104fe91906123d9565b60405180910390f35b34801561051357600080fd5b5061052e600480360381019061052991906126f1565b610e1c565b60405161053b9190612403565b60405180910390f35b34801561055057600080fd5b5061056b600480360381019061056691906124a8565b610ea3565b005b60606036805461057c90612760565b80601f01602080910402602001604051908101604052809291908181526020018280546105a890612760565b80156105f55780601f106105ca576101008083540402835291602001916105f5565b820191906000526020600020905b8154815290600101906020018083116105d857829003601f168201915b5050505050905090565b60008061060a610f27565b9050610617818585610f2f565b600191505092915050565b6000603554905090565b600080610637610f27565b90506106448582856110fa565b61064f858585611186565b60019150509392505050565b60006012905090565b7f000000000000000000000000000000000000000000000000000000000000000073ffffffffffffffffffffffffffffffffffffffff163073ffffffffffffffffffffffffffffffffffffffff1614156106f3576040517f08c379a00000000000000000000000000000000000000000000000000000000081526004016106ea90612804565b60405180910390fd5b7f000000000000000000000000000000000000000000000000000000000000000073ffffffffffffffffffffffffffffffffffffffff16610732611401565b73ffffffffffffffffffffffffffffffffffffffff1614610788576040517f08c379a000000000000000000000000000000000000000000000000000000000815260040161077f90612896565b60405180910390fd5b61079181611458565b6107ea81600067ffffffffffffffff8111156107b0576107af61250c565b5b6040519080825280601f01601f1916602001820160405280156107e25781602001600182028036833780820191505090505b506000611463565b50565b6000806107f8610f27565b905061081981858561080a8589610e1c565b61081491906128e5565b610f2f565b600191505092915050565b61082c6115d1565b61083461164f565b565b61083e6115d1565b61084882826116b2565b5050565b61085d610857610f27565b8261180a565b50565b7f000000000000000000000000000000000000000000000000000000000000000073ffffffffffffffffffffffffffffffffffffffff163073ffffffffffffffffffffffffffffffffffffffff1614156108ef576040517f08c379a00000000000000000000000000000000000000000000000000000000081526004016108e690612804565b60405180910390fd5b7f000000000000000000000000000000000000000000000000000000000000000073ffffffffffffffffffffffffffffffffffffffff1661092e611401565b73ffffffffffffffffffffffffffffffffffffffff1614610984576040517f08c379a000000000000000000000000000000000000000000000000000000000815260040161097b90612896565b60405180910390fd5b61098d82611458565b61099982826001611463565b5050565b60007f000000000000000000000000000000000000000000000000000000000000000073ffffffffffffffffffffffffffffffffffffffff163073ffffffffffffffffffffffffffffffffffffffff1614610a2d576040517f08c379a0000000000000000000000000000000000000000000000000000000008152600401610a24906129ad565b60405180910390fd5b7f360894a13ba1a3210667c828492db98dca3e2076cc3735a920a3ca505d382bbc60001b905090565b6000609760009054906101000a900460ff16905090565b6000603360008373ffffffffffffffffffffffffffffffffffffffff1673ffffffffffffffffffffffffffffffffffffffff168152602001908152602001600020549050919050565b610abe6115d1565b610ac860006119da565b565b610adc82610ad6610f27565b836110fa565b610ae6828261180a565b5050565b60008060019054906101000a900460ff16159050808015610b1b5750600160008054906101000a900460ff1660ff16105b80610b485750610b2a30611aa0565b158015610b475750600160008054906101000a900460ff1660ff16145b5b610b87576040517f08c379a0000000000000000000000000000000000000000000000000000000008152600401610b7e90612a3f565b60405180910390fd5b60016000806101000a81548160ff021916908360ff1602179055508015610bc4576001600060016101000a81548160ff0219169083151502179055505b610c386040518060400160405280600981526020017f546f6b656e5465737400000000000000000000000000000000000000000000008152506040518060400160405280600281526020017f5454000000000000000000000000000000000000000000000000000000000000815250611ac3565b610c40611b20565b610c48611b71565b610c50611bca565b610c58611c23565b8015610cb15760008060016101000a81548160ff0219169083151502179055507f7f26b83ff96e1f2b6a682f133852f6798a09c465da95921460cefb38474024986001604051610ca89190612aa4565b60405180910390a15b50565b610cbc6115d1565b610cc4611c74565b565b600060c960009054906101000a900473ffffffffffffffffffffffffffffffffffffffff16905090565b606060378054610cff90612760565b80601f0160208091040260200160405190810160405280929190818152602001828054610d2b90612760565b8015610d785780601f10610d4d57610100808354040283529160200191610d78565b820191906000526020600020905b815481529060010190602001808311610d5b57829003601f168201915b5050505050905090565b600080610d8d610f27565b90506000610d9b8286610e1c565b905083811015610de0576040517f08c379a0000000000000000000000000000000000000000000000000000000008152600401610dd790612b31565b60405180910390fd5b610ded8286868403610f2f565b60019250505092915050565b600080610e04610f27565b9050610e11818585611186565b600191505092915050565b6000603460008473ffffffffffffffffffffffffffffffffffffffff1673ffffffffffffffffffffffffffffffffffffffff16815260200190815260200160002060008373ffffffffffffffffffffffffffffffffffffffff1673ffffffffffffffffffffffffffffffffffffffff16815260200190815260200160002054905092915050565b610eab6115d1565b600073ffffffffffffffffffffffffffffffffffffffff168173ffffffffffffffffffffffffffffffffffffffff161415610f1b576040517f08c379a0000000000000000000000000000000000000000000000000000000008152600401610f1290612bc3565b60405180910390fd5b610f24816119da565b50565b600033905090565b600073ffffffffffffffffffffffffffffffffffffffff168373ffffffffffffffffffffffffffffffffffffffff161415610f9f576040517f08c379a0000000000000000000000000000000000000000000000000000000008152600401610f9690612c55565b60405180910390fd5b600073ffffffffffffffffffffffffffffffffffffffff168273ffffffffffffffffffffffffffffffffffffffff16141561100f576040517f08c379a000000000000000000000000000000000000000000000000000000000815260040161100690612ce7565b60405180910390fd5b80603460008573ffffffffffffffffffffffffffffffffffffffff1673ffffffffffffffffffffffffffffffffffffffff16815260200190815260200160002060008473ffffffffffffffffffffffffffffffffffffffff1673ffffffffffffffffffffffffffffffffffffffff168152602001908152602001600020819055508173ffffffffffffffffffffffffffffffffffffffff168373ffffffffffffffffffffffffffffffffffffffff167f8c5be1e5ebec7d5bd14f71427d1e84f3dd0314c0f7b2291e5b200ac8c7c3b925836040516110ed9190612403565b60405180910390a3505050565b60006111068484610e1c565b90507fffffffffffffffffffffffffffffffffffffffffffffffffffffffffffffffff81146111805781811015611172576040517f08c379a000000000000000000000000000000000000000000000000000000000815260040161116990612d53565b60405180910390fd5b61117f8484848403610f2f565b5b50505050565b600073ffffffffffffffffffffffffffffffffffffffff168373ffffffffffffffffffffffffffffffffffffffff1614156111f6576040517f08c379a00000000000000000000000000000000000000000000000000000000081526004016111ed90612de5565b60405180910390fd5b600073ffffffffffffffffffffffffffffffffffffffff168273ffffffffffffffffffffffffffffffffffffffff161415611266576040517f08c379a000000000000000000000000000000000000000000000000000000000815260040161125d90612e77565b60405180910390fd5b611271838383611cd7565b6000603360008573ffffffffffffffffffffffffffffffffffffffff1673ffffffffffffffffffffffffffffffffffffffff168152602001908152602001600020549050818110156112f8576040517f08c379a00000000000000000000000000000000000000000000000000000000081526004016112ef90612f09565b60405180910390fd5b818103603360008673ffffffffffffffffffffffffffffffffffffffff1673ffffffffffffffffffffffffffffffffffffffff1681526020019081526020016000208190555081603360008573ffffffffffffffffffffffffffffffffffffffff1673ffffffffffffffffffffffffffffffffffffffff168152602001908152602001600020600082825401925050819055508273ffffffffffffffffffffffffffffffffffffffff168473ffffffffffffffffffffffffffffffffffffffff167fddf252ad1be2c89b69c2b068fc378daa952ba7f163c4a11628f55a4df523b3ef846040516113e89190612403565b60405180910390a36113fb848484611cef565b50505050565b600061142f7f360894a13ba1a3210667c828492db98dca3e2076cc3735a920a3ca505d382bbc60001b611cf4565b60000160009054906101000a900473ffffffffffffffffffffffffffffffffffffffff16905090565b6114606115d1565b50565b61148f7f4910fdfa16fed3260ed0e7147f7cc6da11a60208b5b9406d12a635614ffd914360001b611cfe565b60000160009054906101000a900460ff16156114b3576114ae83611d08565b6115cc565b8273ffffffffffffffffffffffffffffffffffffffff166352d1902d6040518163ffffffff1660e01b8152600401602060405180830381865afa92505050801561151b57506040513d601f19601f820116820180604052508101906115189190612f55565b60015b61155a576040517f08c379a000000000000000000000000000000000000000000000000000000000815260040161155190612ff4565b60405180910390fd5b7f360894a13ba1a3210667c828492db98dca3e2076cc3735a920a3ca505d382bbc60001b81146115bf576040517f08c379a00000000000000000000000000000000000000000000000000000000081526004016115b690613086565b60405180910390fd5b506115cb838383611dc1565b5b505050565b6115d9610f27565b73ffffffffffffffffffffffffffffffffffffffff166115f7610cc6565b73ffffffffffffffffffffffffffffffffffffffff161461164d576040517f08c379a0000000000000000000000000000000000000000000000000000000008152600401611644906130f2565b60405180910390fd5b565b611657611ded565b6000609760006101000a81548160ff0219169083151502179055507f5db9ee0a495bf2e6ff9c91a7834c1ba4fdd244a5e8aa4e537bd38aeae4b073aa61169b610f27565b6040516116a891906126d6565b60405180910390a1565b600073ffffffffffffffffffffffffffffffffffffffff168273ffffffffffffffffffffffffffffffffffffffff161415611722576040517f08c379a00000000000000000000000000000000000000000000000000000000081526004016117199061315e565b60405180910390fd5b61172e60008383611cd7565b806035600082825461174091906128e5565b9250508190555080603360008473ffffffffffffffffffffffffffffffffffffffff1673ffffffffffffffffffffffffffffffffffffffff168152602001908152602001600020600082825401925050819055508173ffffffffffffffffffffffffffffffffffffffff16600073ffffffffffffffffffffffffffffffffffffffff167fddf252ad1be2c89b69c2b068fc378daa952ba7f163c4a11628f55a4df523b3ef836040516117f29190612403565b60405180910390a361180660008383611cef565b5050565b600073ffffffffffffffffffffffffffffffffffffffff168273ffffffffffffffffffffffffffffffffffffffff16141561187a576040517f08c379a0000000000000000000000000000000000000000000000000000000008152600401611871906131f0565b60405180910390fd5b61188682600083611cd7565b6000603360008473ffffffffffffffffffffffffffffffffffffffff1673ffffffffffffffffffffffffffffffffffffffff1681526020019081526020016000205490508181101561190d576040517f08c379a000000000000000000000000000000000000000000000000000000000815260040161190490613282565b60405180910390fd5b818103603360008573ffffffffffffffffffffffffffffffffffffffff1673ffffffffffffffffffffffffffffffffffffffff1681526020019081526020016000208190555081603560008282540392505081905550600073ffffffffffffffffffffffffffffffffffffffff168373ffffffffffffffffffffffffffffffffffffffff167fddf252ad1be2c89b69c2b068fc378daa952ba7f163c4a11628f55a4df523b3ef846040516119c19190612403565b60405180910390a36119d583600084611cef565b505050565b600060c960009054906101000a900473ffffffffffffffffffffffffffffffffffffffff1690508160c960006101000a81548173ffffffffffffffffffffffffffffffffffffffff021916908373ffffffffffffffffffffffffffffffffffffffff1602179055508173ffffffffffffffffffffffffffffffffffffffff168173ffffffffffffffffffffffffffffffffffffffff167f8be0079c531659141344cd1fd0a4f28419497f9722a3daafe3b4186f6b6457e060405160405180910390a35050565b6000808273ffffffffffffffffffffffffffffffffffffffff163b119050919050565b600060019054906101000a900460ff16611b12576040517f08c379a0000000000000000000000000000000000000000000000000000000008152600401611b0990613314565b60405180910390fd5b611b1c8282611e36565b5050565b600060019054906101000a900460ff16611b6f576040517f08c379a0000000000000000000000000000000000000000000000000000000008152600401611b6690613314565b60405180910390fd5b565b600060019054906101000a900460ff16611bc0576040517f08c379a0000000000000000000000000000000000000000000000000000000008152600401611bb790613314565b60405180910390fd5b611bc8611eb7565b565b600060019054906101000a900460ff16611c19576040517f08c379a0000000000000000000000000000000000000000000000000000000008152600401611c1090613314565b60405180910390fd5b611c21611f23565b565b600060019054906101000a900460ff16611c72576040517f08c379a0000000000000000000000000000000000000000000000000000000008152600401611c6990613314565b60405180910390fd5b565b611c7c611f84565b6001609760006101000a81548160ff0219169083151502179055507f62e78cea01bee320cd4e420270b5ea74000d11b0c9f74754ebdbfc544b05a258611cc0610f27565b604051611ccd91906126d6565b60405180910390a1565b611cdf611f84565b611cea838383611fce565b505050565b505050565b6000819050919050565b6000819050919050565b611d1181611aa0565b611d50576040517f08c379a0000000000000000000000000000000000000000000000000000000008152600401611d47906133a6565b60405180910390fd5b80611d7d7f360894a13ba1a3210667c828492db98dca3e2076cc3735a920a3ca505d382bbc60001b611cf4565b60000160006101000a81548173ffffffffffffffffffffffffffffffffffffffff021916908373ffffffffffffffffffffffffffffffffffffffff16021790555050565b611dca83611fd3565b600082511180611dd75750805b15611de857611de68383612022565b505b505050565b611df5610a56565b611e34576040517f08c379a0000000000000000000000000000000000000000000000000000000008152600401611e2b90613412565b60405180910390fd5b565b600060019054906101000a900460ff16611e85576040517f08c379a0000000000000000000000000000000000000000000000000000000008152600401611e7c90613314565b60405180910390fd5b8160369080519060200190611e9b929190612178565b508060379080519060200190611eb2929190612178565b505050565b600060019054906101000a900460ff16611f06576040517f08c379a0000000000000000000000000000000000000000000000000000000008152600401611efd90613314565b60405180910390fd5b6000609760006101000a81548160ff021916908315150217905550565b600060019054906101000a900460ff16611f72576040517f08c379a0000000000000000000000000000000000000000000000000000000008152600401611f6990613314565b60405180910390fd5b611f82611f7d610f27565b6119da565b565b611f8c610a56565b15611fcc576040517f08c379a0000000000000000000000000000000000000000000000000000000008152600401611fc39061347e565b60405180910390fd5b565b505050565b611fdc81611d08565b8073ffffffffffffffffffffffffffffffffffffffff167fbc7cd75a20ee27fd9adebab32041f755214dbc6bffa90cc0225b39da2e5c2d3b60405160405180910390a250565b606061202d83611aa0565b61206c576040517f08c379a000000000000000000000000000000000000000000000000000000000815260040161206390613510565b60405180910390fd5b6000808473ffffffffffffffffffffffffffffffffffffffff16846040516120949190613577565b600060405180830381855af49150503d80600081146120cf576040519150601f19603f3d011682016040523d82523d6000602084013e6120d4565b606091505b50915091506120fc828260405180606001604052806027815260200161358f60279139612106565b9250505092915050565b6060831561211657829050612121565b6121208383612128565b5b9392505050565b60008251111561213b5781518083602001fd5b806040517f08c379a000000000000000000000000000000000000000000000000000000000815260040161216f91906122b4565b60405180910390fd5b82805461218490612760565b90600052602060002090601f0160209004810192826121a657600085556121ed565b82601f106121bf57805160ff19168380011785556121ed565b828001600101855582156121ed579182015b828111156121ec5782518255916020019190600101906121d1565b5b5090506121fa91906121fe565b5090565b5b808211156122175760008160009055506001016121ff565b5090565b600081519050919050565b600082825260208201905092915050565b60005b8381101561225557808201518184015260208101905061223a565b83811115612264576000848401525b50505050565b6000601f19601f8301169050919050565b60006122868261221b565b6122908185612226565b93506122a0818560208601612237565b6122a98161226a565b840191505092915050565b600060208201905081810360008301526122ce818461227b565b905092915050565b6000604051905090565b600080fd5b600080fd5b600073ffffffffffffffffffffffffffffffffffffffff82169050919050565b6000612315826122ea565b9050919050565b6123258161230a565b811461233057600080fd5b50565b6000813590506123428161231c565b92915050565b6000819050919050565b61235b81612348565b811461236657600080fd5b50565b60008135905061237881612352565b92915050565b60008060408385031215612395576123946122e0565b5b60006123a385828601612333565b92505060206123b485828601612369565b9150509250929050565b60008115159050919050565b6123d3816123be565b82525050565b60006020820190506123ee60008301846123ca565b92915050565b6123fd81612348565b82525050565b600060208201905061241860008301846123f4565b92915050565b600080600060608486031215612437576124366122e0565b5b600061244586828701612333565b935050602061245686828701612333565b925050604061246786828701612369565b9150509250925092565b600060ff82169050919050565b61248781612471565b82525050565b60006020820190506124a2600083018461247e565b92915050565b6000602082840312156124be576124bd6122e0565b5b60006124cc84828501612333565b91505092915050565b6000602082840312156124eb576124ea6122e0565b5b60006124f984828501612369565b91505092915050565b600080fd5b600080fd5b7f4e487b7100000000000000000000000000000000000000000000000000000000600052604160045260246000fd5b6125448261226a565b810181811067ffffffffffffffff821117156125635761256261250c565b5b80604052505050565b60006125766122d6565b9050612582828261253b565b919050565b600067ffffffffffffffff8211156125a2576125a161250c565b5b6125ab8261226a565b9050602081019050919050565b82818337600083830152505050565b60006125da6125d584612587565b61256c565b9050828152602081018484840111156125f6576125f5612507565b5b6126018482856125b8565b509392505050565b600082601f83011261261e5761261d612502565b5b813561262e8482602086016125c7565b91505092915050565b6000806040838503121561264e5761264d6122e0565b5b600061265c85828601612333565b925050602083013567ffffffffffffffff81111561267d5761267c6122e5565b5b61268985828601612609565b9150509250929050565b6000819050919050565b6126a681612693565b82525050565b60006020820190506126c1600083018461269d565b92915050565b6126d08161230a565b82525050565b60006020820190506126eb60008301846126c7565b92915050565b60008060408385031215612708576127076122e0565b5b600061271685828601612333565b925050602061272785828601612333565b9150509250929050565b7f4e487b7100000000000000000000000000000000000000000000000000000000600052602260045260246000fd5b6000600282049050600182168061277857607f821691505b6020821081141561278c5761278b612731565b5b50919050565b7f46756e6374696f6e206d7573742062652063616c6c6564207468726f7567682060008201527f64656c656761746563616c6c0000000000000000000000000000000000000000602082015250565b60006127ee602c83612226565b91506127f982612792565b604082019050919050565b6000602082019050818103600083015261281d816127e1565b9050919050565b7f46756e6374696f6e206d7573742062652063616c6c6564207468726f7567682060008201527f6163746976652070726f78790000000000000000000000000000000000000000602082015250565b6000612880602c83612226565b915061288b82612824565b604082019050919050565b600060208201905081810360008301526128af81612873565b9050919050565b7f4e487b7100000000000000000000000000000000000000000000000000000000600052601160045260246000fd5b60006128f082612348565b91506128fb83612348565b9250827fffffffffffffffffffffffffffffffffffffffffffffffffffffffffffffffff038211156129305761292f6128b6565b5b828201905092915050565b7f555550535570677261646561626c653a206d757374206e6f742062652063616c60008201527f6c6564207468726f7567682064656c656761746563616c6c0000000000000000602082015250565b6000612997603883612226565b91506129a28261293b565b604082019050919050565b600060208201905081810360008301526129c68161298a565b9050919050565b7f496e697469616c697a61626c653a20636f6e747261637420697320616c72656160008201527f647920696e697469616c697a6564000000000000000000000000000000000000602082015250565b6000612a29602e83612226565b9150612a34826129cd565b604082019050919050565b60006020820190508181036000830152612a5881612a1c565b9050919050565b6000819050919050565b6000819050919050565b6000612a8e612a89612a8484612a5f565b612a69565b612471565b9050919050565b612a9e81612a73565b82525050565b6000602082019050612ab96000830184612a95565b92915050565b7f45524332303a2064656372656173656420616c6c6f77616e63652062656c6f7760008201527f207a65726f000000000000000000000000000000000000000000000000000000602082015250565b6000612b1b602583612226565b9150612b2682612abf565b604082019050919050565b60006020820190508181036000830152612b4a81612b0e565b9050919050565b7f4f776e61626c653a206e6577206f776e657220697320746865207a65726f206160008201527f6464726573730000000000000000000000000000000000000000000000000000602082015250565b6000612bad602683612226565b9150612bb882612b51565b604082019050919050565b60006020820190508181036000830152612bdc81612ba0565b9050919050565b7f45524332303a20617070726f76652066726f6d20746865207a65726f2061646460008201527f7265737300000000000000000000000000000000000000000000000000000000602082015250565b6000612c3f602483612226565b9150612c4a82612be3565b604082019050919050565b60006020820190508181036000830152612c6e81612c32565b9050919050565b7f45524332303a20617070726f766520746f20746865207a65726f20616464726560008201527f7373000000000000000000000000000000000000000000000000000000000000602082015250565b6000612cd1602283612226565b9150612cdc82612c75565b604082019050919050565b60006020820190508181036000830152612d0081612cc4565b9050919050565b7f45524332303a20696e73756666696369656e7420616c6c6f77616e6365000000600082015250565b6000612d3d601d83612226565b9150612d4882612d07565b602082019050919050565b60006020820190508181036000830152612d6c81612d30565b9050919050565b7f45524332303a207472616e736665722066726f6d20746865207a65726f20616460008201527f6472657373000000000000000000000000000000000000000000000000000000602082015250565b6000612dcf602583612226565b9150612dda82612d73565b604082019050919050565b60006020820190508181036000830152612dfe81612dc2565b9050919050565b7f45524332303a207472616e7366657220746f20746865207a65726f206164647260008201527f6573730000000000000000000000000000000000000000000000000000000000602082015250565b6000612e61602383612226565b9150612e6c82612e05565b604082019050919050565b60006020820190508181036000830152612e9081612e54565b9050919050565b7f45524332303a207472616e7366657220616d6f756e742065786365656473206260008201527f616c616e63650000000000000000000000000000000000000000000000000000602082015250565b6000612ef3602683612226565b9150612efe82612e97565b604082019050919050565b60006020820190508181036000830152612f2281612ee6565b9050919050565b612f3281612693565b8114612f3d57600080fd5b50565b600081519050612f4f81612f29565b92915050565b600060208284031215612f6b57612f6a6122e0565b5b6000612f7984828501612f40565b91505092915050565b7f45524331393637557067726164653a206e657720696d706c656d656e7461746960008201527f6f6e206973206e6f742055555053000000000000000000000000000000000000602082015250565b6000612fde602e83612226565b9150612fe982612f82565b604082019050919050565b6000602082019050818103600083015261300d81612fd1565b9050919050565b7f45524331393637557067726164653a20756e737570706f727465642070726f7860008201527f6961626c65555549440000000000000000000000000000000000000000000000602082015250565b6000613070602983612226565b915061307b82613014565b604082019050919050565b6000602082019050818103600083015261309f81613063565b9050919050565b7f4f776e61626c653a2063616c6c6572206973206e6f7420746865206f776e6572600082015250565b60006130dc602083612226565b91506130e7826130a6565b602082019050919050565b6000602082019050818103600083015261310b816130cf565b9050919050565b7f45524332303a206d696e7420746f20746865207a65726f206164647265737300600082015250565b6000613148601f83612226565b915061315382613112565b602082019050919050565b600060208201905081810360008301526131778161313b565b9050919050565b7f45524332303a206275726e2066726f6d20746865207a65726f2061646472657360008201527f7300000000000000000000000000000000000000000000000000000000000000602082015250565b60006131da602183612226565b91506131e58261317e565b604082019050919050565b60006020820190508181036000830152613209816131cd565b9050919050565b7f45524332303a206275726e20616d6f756e7420657863656564732062616c616e60008201527f6365000000000000000000000000000000000000000000000000000000000000602082015250565b600061326c602283612226565b915061327782613210565b604082019050919050565b6000602082019050818103600083015261329b8161325f565b9050919050565b7f496e697469616c697a61626c653a20636f6e7472616374206973206e6f74206960008201527f6e697469616c697a696e67000000000000000000000000000000000000000000602082015250565b60006132fe602b83612226565b9150613309826132a2565b604082019050919050565b6000602082019050818103600083015261332d816132f1565b9050919050565b7f455243313936373a206e657720696d706c656d656e746174696f6e206973206e60008201527f6f74206120636f6e747261637400000000000000000000000000000000000000602082015250565b6000613390602d83612226565b915061339b82613334565b604082019050919050565b600060208201905081810360008301526133bf81613383565b9050919050565b7f5061757361626c653a206e6f7420706175736564000000000000000000000000600082015250565b60006133fc601483612226565b9150613407826133c6565b602082019050919050565b6000602082019050818103600083015261342b816133ef565b9050919050565b7f5061757361626c653a2070617573656400000000000000000000000000000000600082015250565b6000613468601083612226565b915061347382613432565b602082019050919050565b600060208201905081810360008301526134978161345b565b9050919050565b7f416464726573733a2064656c65676174652063616c6c20746f206e6f6e2d636f60008201527f6e74726163740000000000000000000000000000000000000000000000000000602082015250565b60006134fa602683612226565b91506135058261349e565b604082019050919050565b60006020820190508181036000830152613529816134ed565b9050919050565b600081519050919050565b600081905092915050565b600061355182613530565b61355b818561353b565b935061356b818560208601612237565b80840191505092915050565b60006135838284613546565b91508190509291505056fe416464726573733a206c6f772d6c6576656c2064656c65676174652063616c6c206661696c6564a2646970667358221220d8ae9b2269ed7d820091acc8c14ced6d34e51688c2f0bf860b5c6038d89f453b64736f6c634300080b0033",
  "immutableReferences": {
    "720": [
      {
        "length": 32,
        "start": 1638
      },
      {
        "length": 32,
        "start": 1781
      },
      {
        "length": 32,
        "start": 2146
      },
      {
        "length": 32,
        "start": 2289
      },
      {
        "length": 32,
        "start": 2465
      }
    ]
  },
  "source": "// SPDX-License-Identifier: MIT\r\npragma solidity ^0.8.4;\r\n\r\nimport \"@openzeppelin/contracts-upgradeable/token/ERC20/ERC20Upgradeable.sol\";\r\nimport \"@openzeppelin/contracts-upgradeable/token/ERC20/extensions/ERC20BurnableUpgradeable.sol\";\r\nimport \"@openzeppelin/contracts-upgradeable/security/PausableUpgradeable.sol\";\r\nimport \"@openzeppelin/contracts-upgradeable/access/OwnableUpgradeable.sol\";\r\nimport \"@openzeppelin/contracts-upgradeable/proxy/utils/Initializable.sol\";\r\nimport \"@openzeppelin/contracts-upgradeable/proxy/utils/UUPSUpgradeable.sol\";\r\n\r\ncontract TokenTest is Initializable, ERC20Upgradeable, ERC20BurnableUpgradeable, PausableUpgradeable, OwnableUpgradeable, UUPSUpgradeable {\r\n    constructor() {\r\n        _disableInitializers();\r\n    }\r\n\r\n    function initialize() initializer public {\r\n        __ERC20_init(\"TokenTest\", \"TT\");\r\n        __ERC20Burnable_init();\r\n        __Pausable_init();\r\n        __Ownable_init();\r\n        __UUPSUpgradeable_init();\r\n    }\r\n\r\n    function pause() public onlyOwner {\r\n        _pause();\r\n    }\r\n\r\n    function unpause() public onlyOwner {\r\n        _unpause();\r\n    }\r\n\r\n    function mint(address to, uint256 amount) public onlyOwner {\r\n        _mint(to, amount);\r\n    }\r\n\r\n    function _beforeTokenTransfer(address from, address to, uint256 amount)\r\n        internal\r\n        whenNotPaused\r\n        override\r\n    {\r\n        super._beforeTokenTransfer(from, to, amount);\r\n    }\r\n\r\n    function _authorizeUpgrade(address newImplementation)\r\n        internal\r\n        onlyOwner\r\n        override\r\n    {}\r\n}\r\n",
  "sourcePath": "D:\\work\\eth\\ERC-20contract\\contracts\\TokenTest.sol",
  "compiler": {
    "name": "solc",
    "version": "0.8.11+commit.d7f03943.Emscripten.clang"
  },
  "schemaVersion": "3.4.4",
  "updatedAt": "2022-10-19T20:24:53.389Z",
  "devdoc": {
    "kind": "dev",
    "methods": {
      "allowance(address,address)": {
        "details": "See {IERC20-allowance}."
      },
      "approve(address,uint256)": {
        "details": "See {IERC20-approve}. NOTE: If `amount` is the maximum `uint256`, the allowance is not updated on `transferFrom`. This is semantically equivalent to an infinite approval. Requirements: - `spender` cannot be the zero address."
      },
      "balanceOf(address)": {
        "details": "See {IERC20-balanceOf}."
      },
      "burn(uint256)": {
        "details": "Destroys `amount` tokens from the caller. See {ERC20-_burn}."
      },
      "burnFrom(address,uint256)": {
        "details": "Destroys `amount` tokens from `account`, deducting from the caller's allowance. See {ERC20-_burn} and {ERC20-allowance}. Requirements: - the caller must have allowance for ``accounts``'s tokens of at least `amount`."
      },
      "decimals()": {
        "details": "Returns the number of decimals used to get its user representation. For example, if `decimals` equals `2`, a balance of `505` tokens should be displayed to a user as `5.05` (`505 / 10 ** 2`). Tokens usually opt for a value of 18, imitating the relationship between Ether and Wei. This is the value {ERC20} uses, unless this function is overridden; NOTE: This information is only used for _display_ purposes: it in no way affects any of the arithmetic of the contract, including {IERC20-balanceOf} and {IERC20-transfer}."
      },
      "decreaseAllowance(address,uint256)": {
        "details": "Atomically decreases the allowance granted to `spender` by the caller. This is an alternative to {approve} that can be used as a mitigation for problems described in {IERC20-approve}. Emits an {Approval} event indicating the updated allowance. Requirements: - `spender` cannot be the zero address. - `spender` must have allowance for the caller of at least `subtractedValue`."
      },
      "increaseAllowance(address,uint256)": {
        "details": "Atomically increases the allowance granted to `spender` by the caller. This is an alternative to {approve} that can be used as a mitigation for problems described in {IERC20-approve}. Emits an {Approval} event indicating the updated allowance. Requirements: - `spender` cannot be the zero address."
      },
      "name()": {
        "details": "Returns the name of the token."
      },
      "owner()": {
        "details": "Returns the address of the current owner."
      },
      "paused()": {
        "details": "Returns true if the contract is paused, and false otherwise."
      },
      "proxiableUUID()": {
        "details": "Implementation of the ERC1822 {proxiableUUID} function. This returns the storage slot used by the implementation. It is used to validate the implementation's compatibility when performing an upgrade. IMPORTANT: A proxy pointing at a proxiable contract should not be considered proxiable itself, because this risks bricking a proxy that upgrades to it, by delegating to itself until out of gas. Thus it is critical that this function revert if invoked through a proxy. This is guaranteed by the `notDelegated` modifier."
      },
      "renounceOwnership()": {
        "details": "Leaves the contract without owner. It will not be possible to call `onlyOwner` functions anymore. Can only be called by the current owner. NOTE: Renouncing ownership will leave the contract without an owner, thereby removing any functionality that is only available to the owner."
      },
      "symbol()": {
        "details": "Returns the symbol of the token, usually a shorter version of the name."
      },
      "totalSupply()": {
        "details": "See {IERC20-totalSupply}."
      },
      "transfer(address,uint256)": {
        "details": "See {IERC20-transfer}. Requirements: - `to` cannot be the zero address. - the caller must have a balance of at least `amount`."
      },
      "transferFrom(address,address,uint256)": {
        "details": "See {IERC20-transferFrom}. Emits an {Approval} event indicating the updated allowance. This is not required by the EIP. See the note at the beginning of {ERC20}. NOTE: Does not update the allowance if the current allowance is the maximum `uint256`. Requirements: - `from` and `to` cannot be the zero address. - `from` must have a balance of at least `amount`. - the caller must have allowance for ``from``'s tokens of at least `amount`."
      },
      "transferOwnership(address)": {
        "details": "Transfers ownership of the contract to a new account (`newOwner`). Can only be called by the current owner."
      },
      "upgradeTo(address)": {
        "details": "Upgrade the implementation of the proxy to `newImplementation`. Calls {_authorizeUpgrade}. Emits an {Upgraded} event."
      },
      "upgradeToAndCall(address,bytes)": {
        "details": "Upgrade the implementation of the proxy to `newImplementation`, and subsequently execute the function call encoded in `data`. Calls {_authorizeUpgrade}. Emits an {Upgraded} event."
      }
    },
    "version": 1
  },
  "userdoc": {
    "kind": "user",
    "methods": {},
    "version": 1
  }
}